:100000008DC00000A6C00000A4C00000A2C0000077
:10001000A0C000009EC000009CC000009AC000006C
:1000200098C0000096C0000094C00000AFC300005C
:1000300090C000008EC000008CC000008AC000008C
:1000400088C0000086C0000084C0000082C000009C
:1000500080C000007EC000007CC0000037C10000EE
:1000600078C0000076C0000074C0000072C00000BC
:1000700070C0000022034100720064007500690036
:100080006E006F0020004A006F007900730074005A
:10009000690063006B0000001003410072006400FF
:1000A000750069006E006F00000004030904090276
:1000B0002200010100C03209040000010300000019
:1000C000092111010001223A000705810308000AF5
:1000D0001201100100000008EB03432000000102A0
:1000E000000105010904A1010901A1000501093070
:1000F000093109320933093409350936093716003F
:100100008026FF7F751095088182C0050919012995
:100110002815002501750195288102C011241FBEF4
:10012000CFEFD2E0DEBFCDBF11E0A0E0B1E0EEED59
:10013000FEE002C005900D92AE30B107D9F721E084
:10014000AEE0B1E001C01D92A83CB207E1F730D0AB
:10015000BAC656CFCF93DF9384B7877F84BF0FB6DD
:10016000F894A89580916000886180936000109257
:1001700060000FBE80E190E09093CD008093CC00B2
:1001800086E08093CA0082E08093C800C9ECD0E08A
:1001900088E18883539A5A9A8AB180638AB98BB16D
:1001A00080638BB9E8D288E98883DF91CF91089585
:1001B000D1DF2FB7F8948AE391E09093B90180934F
:1001C000B8019093BB018093BA012FBF789480E06F
:1001D00091E0B2D569D480910E0190910F01892BE5
:1001E000B1F380910E0190910F01019790930F014F
:1001F00080930E0180910E0190910F01892B39F7A8
:100200005D9AE5CF0895089580E091E075D5E2EE1E
:10021000F0E0808184608083089580E091E055C49F
:1002200080910B0190910C01009729F00197909318
:100230000C0180930B0108950F931F93CF93DF93CD
:100240009FB7F8948091BC019FBF853130F1C0E128
:10025000D1E045E251E0AAE3B1E0E091BA01F091CA
:10026000BB01919181E0E83BF80751F1F093BB01AC
:10027000E093BA016FB7F8948091BC0181508093EC
:10028000BC016FBF99934C175D0739F75D9880EDFE
:1002900097E090930F0180930E0185E1E0E1F1E09A
:1002A000D90101900D928A95E1F785E190E0F8017E
:1002B0009183808380E0DF91CF911F910F9108950A
:1002C000B093BB01A093BA01D5CF08952F932FB758
:1002D0002F938F939F93EF93FF938091CE009EB3C4
:1002E000943011F52FB7F8949091BC012FBF9E3731
:1002F000D9F0E091B801F091B9018083E091B801A3
:10030000F091B901CF01019621E0883B9207A1F05D
:100310009093B9018093B8019FB7F8948091BC0184
:100320008F5F8093BC019FBFFF91EF919F918F9151
:100330002F912FBF2F9118958AE391E092838183AB
:10034000EBCF292F332723303105D1F070F4213042
:10035000310551F12230310561F190E080E030E06B
:1003600020E0FA013183208308952132310531F1F3
:100370002232310591F78AE390E022EE30E0F1CFAE
:1003800099278130910569F0009729F0029729F7A4
:10039000E4E7F0E002C0EAEAF0E0849190E09F0137
:1003A000E0CFE8E9F0E0F9CF82E190E020ED30E045
:1003B000D8CF82E290E02EEA30E0D3CF89E090E01F
:1003C00020EC30E0CECFAC0128E030E080E0241714
:1003D000350718F08295807F08958F5F220F331FB5
:1003E000F6CF8093E900EBEEF0E0808181608083BE
:1003F000EDEEF0E010826093EC0040838091EE001F
:10040000881F8827881F08951092F40080E0809349
:10041000E9001092F0001092E8001092ED00909127
:10042000EB009E7F9093EB008F5F853081F70895FE
:100430008091C00187FF11C08091E80082FF06C053
:100440008091E8008B778093E80003C08EB3811120
:10045000F3CF08958EB38823E1F38091E80080FF05
:10046000F9CF8091E8008E77EECF85E69091EC0091
:1004700090FF06C09091E80090FF06C080E00895CC
:100480009091E80092FDFACF9EB39923A1F09EB31C
:10049000953099F09091EB0095FD11C09091E1009D
:1004A00092FFE4CF9091E1009B7F9093E100815017
:1004B000E9F684E0089582E0089583E0089581E0FC
:1004C0000895DF92EF92FF920F931F93CF93DF93E4
:1004D000D82FD92E8B017A01C8DFC82F8823C1F00D
:1004E0008C2FDF91CF911F910F91FF90EF90DF90B4
:1004F0000895F70109958130D1F4C5E0F1CFED2FD2
:10050000FD2D81918093F10001501109DE2FDF2E26
:100510000115110529F38091E80085FDF0CF809148
:10052000E8008E778093E800E114F10411F79DDF75
:10053000882371F3C82FD4CF2091C6013091C70111
:1005400026173707A0F06115710529F42091E800FE
:100550002E772093E80030E06115710551F43111D8
:1005600008C08091E80082FF30C080E00895B901A2
:10057000F2CF2091E80023FD30C02091E80022FD59
:10058000F0CF2EB3222359F12EB3253021F1209143
:10059000E80020FFE1CF2091F2006115710511F014
:1005A000283050F031E0283009F030E02091E800A8
:1005B0002E772093E800D0CFFC0181918093F10049
:1005C000615071092F5FCF01E8CF8EB3882339F0D6
:1005D0008EB3853031F683E0089581E0089582E09E
:1005E00008952091C6013091C70126173707A0F062
:1005F0006115710529F42091E8002E772093E80019
:1006000030E06115710551F4311108C08091E800A6
:1006100082FF31C080E00895B901F2CF2091E80057
:1006200023FD31C02091E80022FDF0CF2EB322231C
:1006300061F12EB3253029F12091E80020FFE1CFB0
:100640002091F200FC01CF016115710511F02830F5
:1006500050F031E0283009F030E02091E8002E77AA
:100660002093E800CECF84918093F100615071090E
:100670002F5F3196E8CF8EB3882339F08EB3853063
:1006800029F683E0089581E0089582E008956115D8
:10069000710529F42091E8002B772093E80061157B
:1006A000710531F48091E80080FF1DC080E008955D
:1006B0002091E80023FD1FC02EB32223F1F02EB3BA
:1006C0002530B9F02091E80022FFE9CF2091F20017
:1006D000222301F3FC018091F100819361507109A3
:1006E000CF01A1F7D7CF8EB3882339F08EB38530F1
:1006F000C9F683E0089581E0089582E0089540D02E
:1007000042D01EBA1092BE011092BD0184E089BD94
:1007100089B5826089BD09B400FEFDCF8091D80003
:10072000982F9F779093D80080688093D80080910D
:1007300063008E7F809363008091D8008F7D8093CB
:10074000D8008091E0008E7F8093E0008091E100EE
:100750008E7F8093E1008091E20081608093E200CF
:100760008091E100877F8093E1008091E2008860C2
:100770008093E2000895C3DF81E08093BF01089574
:100780001092E20008951092E10008951F920F92D6
:100790000FB60F9211242F933F934F935F936F9354
:1007A0007F938F939F93AF93BF93EF93FF9380912A
:1007B000E10080FF1BC08091E20080FF17C08091A4
:1007C000E1008E7F8093E1008091E2008E7F809334
:1007D000E2008091E20080618093E2008091D80085
:1007E00080628093D80019BC1EBA0DDD8091E100B3
:1007F00084FF27C08091E20084FF23C084E089BD8C
:1008000089B5826089BD09B400FEFDCF8091D80012
:100810008F7D8093D8008091E1008F7E8093E100EE
:100820008091E2008F7E8093E2008091E2008160FF
:100830008093E2008091BE01811148C081E08EBBAF
:10084000E1DC8091E10083FF22C08091E20083FF20
:100850001EC08091E100877F8093E10082E08EBB23
:100860001092BE018091E1008E7F8093E100809123
:10087000E2008E7F8093E2008091E20080618093AD
:10088000E200C2DD42E060E080E0ABDD0CD18091AF
:10089000E10082FF0AC08091E20082FF06C08091E1
:1008A000E1008B7F8093E100BBDCFF91EF91BF9172
:1008B000AF919F918F917F916F915F914F913F91F8
:1008C0002F910F900FBE0F901F90189584E0B7CF17
:1008D0001F93CF93DF9300D0CDB7DEB780EC91E0CC
:1008E0002091F100FC012193CF01F1E0883C9F07AA
:1008F000B9F78091C0019091C1019A3008F0D1C040
:10090000E92FF0E0EB59F84FBBC2803881F0823814
:1009100009F0C7C08091C40187708093E90080917D
:10092000EB0085FB882780F91092E90002C08091D6
:10093000BD019091E800977F9093E8008093F100CB
:100940001092F1008091E8008E7721C0882309F48D
:1009500050C0823009F0A5C08091C201811112C03F
:100960008091C401877009F444C08093E90020910C
:10097000EB0020FF3EC0933071F48091EB00806269
:100980008093EB001092E9008091E800877F8093CC
:10099000E8004EDD2EC09091EB0090619093EB004B
:1009A00021E030E001C0220F8A95EAF72093EA00A7
:1009B0001092EA008091EB008860E2CF811171C053
:1009C0001091C2018091E800877F8093E80030DDBC
:1009D0008091E80080FF0AC0812F8F7792E009F0B4
:1009E00093E09EBB80688093E30003C08EB38111C7
:1009F000EFCF8091E80083FF0AC08091EB00806216
:100A00008093EB008091E800877F8093E8000F904F
:100A10000F90DF91CF911F9108958058823008F098
:100A200040C0AE014F5F5F4F6091C4018091C20131
:100A30009091C30186DCBC01892BD9F29091E8002A
:100A4000977F9093E80089819A81CBDD8091E800BF
:100A50008B778093E800CDCF803819F58091E8003E
:100A6000877F8093E8008091BE018093F1006ACF78
:100A7000811117C09091C201923008F0BACF8091D5
:100A8000E800877F8093E8009093BE01D1DC8091DD
:100A9000BE01811104C083E08EBBB6DBAACF84E027
:100AA000FBCFBBDBA6CF0895CF938EB3882359F03D
:100AB000C091E900C7701092E9008091E80083FDC1
:100AC00007DFC093E900CF9108958F929F92AF9274
:100AD000BF92CF92DF92EF92FF920F931F93CF932B
:100AE000DF9300D00F92CDB7DEB77C01CDB6DEB676
:100AF0008091E80083FF15C0F70120818091C40137
:100B00009091C5012817190661F48091C1018330C5
:100B100009F4A2C0D8F4813009F452C0823009F43B
:100B2000DAC00FB6F894DEBE0FBECDBE0F900F90A8
:100B30000F90DF91CF911F910F91FF90EF90DF9079
:100B4000CF90BF90AF909F908F9008958A3009F416
:100B5000AAC08B3009F493C0893019F78091C00185
:100B60008132F9F68091E800877F8093E800009158
:100B7000C6011091C701A090C201B090C3018DB70A
:100B80009EB7801B910B0FB6F8949EBF0FBE8DBF12
:100B9000EDB7FEB731964F01B801CF0178DD4FEFC9
:100BA0004B0D94016A2DC70190DB8091E8008E7790
:100BB0008093E8000FB6F894DEBE0FBECDBEB1CF75
:100BC0008091C001813A09F0ACCF8DB69EB680917C
:100BD000E800877F8093E8001A8219828091C20121
:100BE0001091C3018B838781482F50E08DB79EB74A
:100BF000841B950B0FB6F8949EBF0FBE8DBFEDB74B
:100C0000FEB731965F0170E060E0CF0155D14FEF44
:100C1000410F8E010F5F1F4F9501BE016D5F7F4F2A
:100C2000C7010ADBF70185819681009721F0478192
:100C300050E0B50138D11092E90069817A81C5018F
:100C40007BDC8091E8008B778093E8000FB6F89406
:100C50009EBE0FBE8DBE65CF8091C001813A09F066
:100C600060CF8091E800877F8093E8008085809343
:100C7000F1008091E8008E778093E80012C08091A7
:100C8000C001813209F04DCF8091E800877F8093C9
:100C9000E8009091C20181E0911101C080E0F7016C
:100CA0008087C6DB3ECF8091C001813209F039CF09
:100CB0008091E800877F8093E8008091C201909145
:100CC000C30136E0969587953A95E1F78C7F93704E
:100CD00092878187E6CF8091C001813A09F021CFC8
:100CE0008091E800877F8093E800818592859695C2
:100CF000879596958795BBCFCF93DF93FC01DC0159
:100D00001A9683E0ED0119928A95E9F781E08087D0
:100D100084EF91E092878187828193812481C0E072
:100D20002111C4E0D1814FDB8C2B482F426061EC54
:100D30008D2FDF91CF9155CB5F926F927F928F92E3
:100D40009F92AF92BF92CF92DF92EF92FF920F935A
:100D50001F93CF93DF9300D00F92CDB7DEB77C0106
:100D6000ADB6BEB68EB3843009F072C0F701818192
:100D70008093E9008091E80085FF6AC08DB69EB639
:100D8000478150E08DB79EB7841B950B0FB6F89442
:100D90009EBF0FBE8DBFEDB7FEB731966F011B82B0
:100DA0001A82198270E060E0CF0186D08E010F5F59
:100DB0001F4F960140E0BE016D5F7F4FC7013CDAD7
:100DC000582EF70181859285892B29F011E08385C2
:100DD0009485892B09F010E0F7016580768000E0AA
:100DE0006114710479F049815A81B301C6014ED072
:100DF00001E0892B09F400E0F701478150E0B601DA
:100E0000C30151D089819A81892BE9F0511004C026
:100E1000011102C010FF17C0F701818592859487E8
:100E2000838781818093E9008B8181118093F10018
:100E300069817A8150E040E0C60143DB8091E8009F
:100E40008E778093E8000FB6F8949EBE0FBE8DBEDD
:100E50000FB6F894BEBE0FBEADBE0F900F900F90B0
:100E6000DF91CF911F910F91FF90EF90DF90CF9086
:100E7000BF90AF909F908F907F906F905F900895FC
:100E8000EE0FFF1F0590F491E02D0994FB01DC01AA
:100E900004C08D910190801921F441505040C8F751
:100EA000881B990B0895FB01DC0102C001900D9293
:100EB00041505040D8F70895DC0101C06D93415076
:100EC0005040E0F70895F894FFCF8504A60451053B
:0E0ED000A6045105DE040D0551052C0538055C
:0E0EDE000001080000250115000000000000C2
:00000001FF
